:020000040800F2
:10000000E01B0020E1010008D9420008153C00086F
:10001000D5420008590C0008716400080000000077
:100020000000000000000000000000003947000848
:100030001D0D000800000000E5460008A14700086B
:10004000FB010008FB010008FB010008FB010008A0
:10005000FB010008FB010008FB010008FB01000890
:10006000FB010008FB010008FB010008E10C00088F
:10007000FB010008FB010008FB010008FB01000870
:10008000FB010008FB010008FB0100086162000899
:1000900071620008FB010008FB010008A10D0008C7
:1000A000FB010008FB010008FB010008FB01000840
:1000B0002D4800083D480008FB010008FB0100082E
:1000C000FB010008FB010008FB010008FB01000820
:1000D000FB010008FB010008FB010008FB01000810
:1000E000950D0008FB010008FB01000800F002F874
:1000F00000F067F80AA090E8000C82448344AAF15B
:100100000107DA4501D100F05CF8AFF2090EBAE858
:100110000F0013F0010F18BFFB1A43F0010318473B
:10012000707D0000907D00000A444FF0000C10F834
:10013000013B13F0070408BF10F8014B1D1108BF65
:1001400010F8015B641E05D010F8016B641E01F805
:10015000016BF9D113F0080F1EBF10F8014BAD1C55
:100160000C1B09D16D1E58BF01F801CBFAD505E073
:1001700014F8016B01F8016B6D1EF9D59142D6D3CD
:10018000704700000023002400250026103A28BFF5
:1001900078C1FBD8520728BF30C148BF0B607047F9
:1001A000662907F00086002070471FB500F02AFB83
:1001B00004000020002106F07DFFE0601FBD10B5A7
:1001C00010BD00F01FFC1146FFF7EFFF06F05AFAD2
:1001D00000F03DFC03B4FFF7F2FF03BC00F080FC2D
:1001E0000948804709480047FEE7FEE7FEE7FEE7CB
:1001F000FEE7FEE7FEE7FEE7FEE7FEE70448054907
:10020000054A064B7047000029480008ED00000829
:10021000E0150020E01B0020E0170020E017002080
:100220000FB41CB5074B06AA7B446946009005989D
:1002300000F0CFFA0020694600F0DEFA1CBC5DF841
:1002400014FB0000CD0500002DE9F0474FF0000A37
:1002500089460446C0F820A02046E1688847002867
:1002600076D0252806D0D4E901219047206A401C89
:100270002062F1E7E168204600258847C4F81CA009
:1002800006460027C4F818A02A2E09D0304606F0EA
:1002900009FF38B304EB8708303EC8F8186019E04E
:1002A00059F8041B204604EB87029161E1688847F6
:1002B000012F064618D1E069002820DA25F0200534
:1002C0001DE0D8F8180000EB800006EB4000303845
:1002D000C8F818002046E1688847064606F0E2FEA6
:1002E0000028EED1012F0AD02E2E08D12046E16839
:1002F00088477F1C0646022F45F02005C4DBA06915
:10030000002803DA404245F00105A061E80701D06A
:1003100025F01005B6B1A6F14100192802D8203603
:1003200045F400654A463146204625604D46FFF7B4
:1003300037FF58B1012806D0ED1D25F0070000F168
:10034000080989E704E005F1040985E730468AE7F2
:10035000206ABDE8F0874FF0000200B513469446CE
:100360009646203922BFA0E80C50A0E80C50B1F10D
:100370002001BFF4F7AF090728BFA0E80C5048BF21
:100380000CC05DF804EB890028BF40F8042B08BFBF
:10039000704748BF20F8022B11F0804F18BF00F8BB
:1003A000012B70477047704770472DE9FF4F0C468F
:1003B0001E464FF0FF378BB0D2E90001DDF86080B8
:1003C0000A908A46C1F30A5505B93D460021084600
:1003D0004FF00000BAF1000F00F4400005DA00EB26
:1003E00080004FF4400101EA50004FEA9059B9F102
:1003F000010F00DDB9460A9850EA4A000ED044F6D3
:100400001050A5F2FF3545432F14B8F1000F1ED050
:100410007542291E1EDDC9F100021CE0B8F1010F72
:100420004FF0000001D0302103E0F24305E02154F9
:10043000401CB042FBDB30460022002121540B99C6
:10044000C1F80880C1E900200FB0BDE8F08FBD1BE6
:100450006D1CDEE74A4600DA694206A800F05CFA45
:1004600006AB93E8070003AB83E8070050460A9900
:1004700006F03CFA8DE80700A0F500501F38009008
:100480000398002D0ADD42F21F014A46084400236A
:1004900003A90390684606F0A5FC09E0A0F500500A
:1004A0004A461F38002303A90390684606F0AFFCB4
:1004B0008DE807000004000C03D04FF0FF30410826
:1004C00000E01046B8F1000F03D00022009215465C
:1004D0001EE0751E05D400F099F9303262556D1E8C
:1004E000F9D5B3460122084302D000227F1C04E064
:1004F0002078302801D100227F1E002A099784D05D
:100500001DE0112D07DA00F081F9303262556D1CC3
:1005100050EA0102F5D1084302D00098C8B10EE0BC
:100520000021681E05E0235C625C63542254401E77
:10053000491C8142F7DBAB46A81B401E09900020F6
:1005400004F80B000B98099AC0F80880C0E9002B4A
:100550007AE711264FF0000857E72DE9F04F88465B
:100560000446D21D22F0070191B0D1E90001CDE986
:100570000A0106F083FD02460B98C00F01D02D2022
:1005800007E02068810701D52B2002E0202101EA45
:10059000C000032A099001D0072A05DB0346414623
:1005A000204600F079F90BE12078800601D5E0695A
:1005B00000E00620B8F1650F814606D0B8F1660F5D
:1005C00018D0B8F1670F70D131E00020B9F1110FE8
:1005D000009001DB112301E009F101030AAA01A93E
:1005E0000CA8FFF7E2FEDDE90C70002609F1010519
:1005F000834647E001204B4600904FF000470AAA8F
:1006000001A90CA8FFF7D1FEDDE90DB00C995D46FC
:10061000002610B909F101000D18B9EB050003D44B
:10062000C0F1FF3609F10105A5EB09002BE0B9F196
:10063000010F01DA4FF001090020B9F1110F00900C
:10064000484601DD112300E003460AAA01A90CA8CF
:10065000FFF7ABFEDDE90C704D460026834620789F
:1006600000070AD4AB4500DA5D4601A8012D04DD80
:10067000411911F8011C302907D04F4502DA17F152
:10068000040F04DA012082460FE06D1EEEE7002F12
:1006900002DCED1B3E4403E0781CA84200DD7D1C1B
:1006A000B81B00F1010A4FF000472078000703D47F
:1006B000AA4501DB4FF0FF3A0021B7F1004F0DF1E1
:1006C00043088DF8431024D002202B23002F01DA99
:1006D0007F422D230A21021EA0F1010000DC5FB140
:1006E00097FBF1FC97FBF1F201FB1C7C17460CF128
:1006F000300C08F801CDEEE7A8F101000370218865
:10070000090501D5452100E06521A0F1010800F8A7
:10071000011C09980FA9A1EB0807FF1D00B10120DA
:10072000411901EBEA70A1693844081A401EA06122
:100730002078C00602D42046AFF30080099828B183
:10074000D4E901219047206A401C20622078C0062D
:1007500022D52046AFF300801EE0002E04DBB34517
:1007600002DD01A8805D00E03020D4E9012190473E
:10077000206A401C2062761CAAF101005FEA000A90
:100780000AD100F03FF8C0680168405CD4E901215B
:100790009047206A401C2062281EA5F10105DCDC80
:1007A00007E0D4E9012118F8010B9047206A401CAA
:1007B0002062381EA7F10107F3DC2046AFF300806A
:1007C000032011B041E6000001694A1C026108786B
:1007D000704700B58FB0CDE9013100210591054981
:1007E0007944CDE9031011466846FFF72DFD0FB09F
:1007F00000BD0000E5FFFFFF0A6802F8010B0A6078
:100800007047000000487047D801002030B5B0F1B3
:100810000A0271F100034FEA900E4EEA817EB0EBBE
:100820000E0061EB91014FEA101E4EEA017E10EBC3
:100830000E0041EB11114FEA102E4EEA016E10EB43
:100840000E0041EB11214FEA104E4EEA014E10EB23
:100850000E0041EB1141401841F100014FEAD00078
:1008600040EA41704FEAD1014FEA810444EA9074B2
:1008700010EB800544EB01046D1944EB0404521B9A
:10088000A3414FF0000348BF0A3200D530BD401CE1
:1008900041F1000130BD00002DE9F0411F46044642
:1008A00003260168072A01F4006004DB08B116A5DD
:1008B00005E016A503E008B115A500E015A521F097
:1008C00010002060A069C01EA0610FB1401EA06191
:1008D0002046AFF300804FB1D4E90121384690475C
:1008E000206A401C2062C01C206206E0206AFAE7F1
:1008F000D4E9012115F8010B9047761EF8D2204665
:10090000AFF30080BDE8F0814E414E006E616E0095
:10091000494E4600696E66002DE9F047814616464D
:100920008AB0354878440DC88DE80D0032487844C7
:10093000801C03AC0DC884E80D0041F69B300844D0
:10094000372190FBF1F290FBF1F5A5F1800501FB59
:1009500012041B3C02D56442012000E00020DFF8B5
:1009600098A080460027FA44AAF1BE0A0EE0E007EC
:100970000AD03246684607EB470101230AEB8101A2
:1009800006F045FA8DE8070064107F1C002CEED1BC
:10099000194F7F44AE3F19E0E80715D007EB04106C
:1009A0000DF1180A90E80E008AE80E00C068F042C7
:1009B00001D1981908903246012306A903A806F030
:1009C00026FA03AB83E807006D10641C002DE3D109
:1009D0004FF0010332466946B8F1000F03A802D078
:1009E00006F000FA01E006F012FAC9E90001C9F8C0
:1009F00008200AB0BDE8F087007500000048704785
:100A0000B80100207546FFF7F9FFAE4605006946BC
:100A1000534620F00700854618B020B5FFF7EEFBDF
:100A2000BDE820404FF000064FF000074FF00008EF
:100A30004FF0000BAC46ACE8C009ACE8C009ACE82C
:100A4000C009ACE8C00921F007018D46704710B518
:100A50000446AFF300802046BDE81040FFF7BABB64
:100A60004FF0013C50F8042B51F8043B9A4221D13D
:100A7000A2EB0C03934313EACC1317D150F8042BC9
:100A800051F8043B9A4215D1A2EB0C03934313EAAD
:100A9000CC130BD150F8042B51F8043B9A4209D1E6
:100AA000A2EB0C03934313EACC13DBD04FF000000E
:100AB000704700BFD01A01BAB1FA81F101F01801F4
:100AC00022FA01F0CB40DBB2C0B2C01AC1F1200162
:100AD0002CFA01F3D11A914311EAC311E6D1704700
:100AE00001491820ABBEFEE7260002007047000057
:100AF000B0B5044600688168C90709D0816821F053
:100B00000101816000F0ECFF21688968C90701D10B
:100B10000020B0BD054603E020688068C007F7D01C
:100B200000F0DEFF401B0328F6D320688068C00772
:100B3000F2D0A06A40F01000A062E06A40F001002C
:100B4000E0620120B0BD000080B50146406A826AC3
:100B500012F0500F04D0006A026B0846904780BD27
:100B60000168826A42F400728262896801F460213D
:100B7000B1F5602F01D1017B11B100F0DBF980BD2F
:100B8000816A21F480718162816AC904F5D4816A25
:100B900041F00101816200F0CDF980BD80B5406A6D
:100BA000816A41F040018162C16A41F00401C16281
:100BB00000F0C4F980BD000080B5406A00F0BCF9C7
:100BC00080BD0000B0B582B00446002001902168CD
:100BD0008A68D2073DD1886840F00100886040F201
:100BE0001C00C2F2000000684DF68361C4F21B31A4
:100BF000A0FB0101880C00BF0190019810B1019881
:100C00000138F9E700F06CFF21688968C9071CD139
:100C1000054603E020688068C00719D100F060FF36
:100C2000401B0328F6D320688068C007F2D1A06A71
:100C300040F01000A062E06A40F00100E062002095
:100C400084F82400012002B0B0BD002002B0B0BD85
:100C5000002002B0B0BD0000FEE700000020704799
:100C60000020704710B540F6B464C2F2000440F6AC
:100C70006C61C2F200012046002203F0B5FF40F68D
:100C80002C61C2F20001204603F0A8FF002010BD35
:100C900010B540F6B464C2F200040146204603F0E9
:100CA0009DFF204603F07CFF002010BD10B540F6EC
:100CB000B462C2F20002D2F8B822D2F81432002B89
:100CC0001CBF012010BD40F6B464C2F200040A4605
:100CD0000146204603F088FF204604F007F810BDC7
:100CE00080B541F2D810C2F2000000F06DFC80BD6A
:100CF000B0B5D0E900CED0E90F40012505FA00F0EB
:100D000060600846CCF80430BEF1100F04BF1046F6
:100D10000A46CCF80800CCF80C20B0BD70470000A3
:100D20004EF6FC50CEF20000016821F080710160A7
:100D3000016841F08071016041F20000CEF20000D4
:100D4000016821F001010160016841F001010160C9
:100D50000021416000BF00BF00BF704781B040F27A
:100D60001C01C2F2000109684DF68362C4F21B3215
:100D7000A1FB021241F20401CEF20001930C0A68B9
:100D8000584300BF0B689B1A0093009B8342F9D322
:100D900001B0704780B54FF4806000F079FD80BDF0
:100DA00080B54FF4807000F073FD4FF4007000F0D8
:100DB0006FFD80BDEFF3108072B600BFFEE700004C
:100DC00080B582B040F6AC61C2F2000109784FF004
:100DD0000A0C08438DF8070041F21C20C2F2000003
:100DE0000DF107024E210123CDF800C000F046FFAF
:100DF00002B080BDB0B54FF2E871C1F6FF7108686E
:100E00008A68801808BFB0BD40F25815C2F20005CC
:100E10004C68A91C082203F07FF805F11201204656
:100E2000042203F079F8B0BD70B581B000220092C1
:100E300090F82420012A01D1022177E04A68012399
:100E4000062A80F8243005D803686FF0040C03F1FB
:100E5000340E0AE003680C2A87BF03F12C0E6FF0F2
:100E6000400C03F1300E6FF0220C02EB8202DEF830
:100E7000005062441F230C68934025EA030304FAE0
:100E800002F21A43CEF800200E68D0F800E006EB1C
:100E900046051024092E88BF1E3D88BF0C245EF82D
:100EA000042007238968AB409A43A94011434EF8B8
:100EB000041026F001014FF0000C10294FF0000142
:100EC00032D142F20041C4F201018E4505D0816A5F
:100ED00041F020018162012126E08968090222D4C3
:100EE000DEF80810102E41F40001CEF808101AD1D7
:100EF00040F21C01C2F2000109684DF68362C4F29F
:100F00001B32A1FB0212910C01EB810149000091FF
:100F1000009941B1009901390091009900294FF0E1
:100F20000001F7D100E0002180F824C0084601B09C
:100F300070BD00007047000070470000704700005F
:100F40000068C06C70470000002804BF0120704793
:100F5000F0B581B00746044657F8280F30B9002095
:100F6000E06284F82400204600F07CF82046FFF779
:100F7000BFFDA26AA16A002808BF12F0100205D0C6
:100F800041F010010120396001B0F0BD41F20212C0
:100F900091430231A162E169D4E9013241EA0305DA
:100FA000511EB1FA81F149091346B2F5807F18BF8D
:100FB0000B02267D217B012E45EA410C13D141B164
:100FC000A16A41F02001A162E16A41F00101E16200
:100FD00009E0A1694EF20006CFF6FF7606EB41313B
:100FE000194341F400632168B2F5807F4E6826F40E
:100FF000694643EA06034B608B684FF2FD76CFF6F5
:10100000E17603EA060343EA0C038B6001D0012A70
:1010100006D122690023CFF6F07303EB025200E001
:101020000022CB6A23F470031A43CA62896840F62F
:10103000FE62CFF61F721140614506D10021E162C8
:10104000A16A012262F301019DE7A06A40F010004D
:1010500020F00200A06254F82C0F40F001010120A2
:10106000274690E7B0B586B00446006842F6000116
:10107000C4F2010188424FF00001CDE90411CDE92D
:10108000021147D042F20041C4F20101884262D10C
:1010900041F21800C4F20200016841F400710160DD
:1010A000016801F4007101910199016841F00401A6
:1010B0000160006802A900F004000190019802207C
:1010C00002900320039040F60000C4F2010000F0FB
:1010D000EDFB41F2D8150820C2F20005C4F202006F
:1010E0000021C5E9000105F1080080224FF480735A
:1010F0004FF4006C4FF0200E80E80E502846E96156
:1011000000F024FB002818BFFFF754FE25626C6234
:1011100006B0B0BD41F21800C4F20200016841F40B
:1011200080610160016801F48061019101990168A9
:1011300041F004010160006802A900F00400019080
:101140000198042002900320039040F60000C4F2AE
:10115000010000F0ABFB06B0B0BD00002DE9F0418E
:1011600082B000260D460446019600F0B9FC2168C5
:101170008A68D2053CD480464868C00503D4C86A52
:1011800010F4700F3ED040F21C00C2F2000006685E
:10119000022001F0AFFB216844F624130A69B6FB74
:1011A000F0F0C2F292431A4206D1CA6844F6241300
:1011B000C0F292031A423ED00A6942F29243C1F24F
:1011C00049231A4206D1CA6842F29243C0F2490347
:1011D0001A4242D00A6949F24923C0F224031A4252
:1011E0004FF0FC023AD1C968194208BF542235E0D9
:1011F000A06A40F02000A06284F82460012002B0C0
:10120000BDE8F08120680068800743D46E1C07E0C9
:101210002068006880075CD520680068800739D4A2
:10122000002EF9D0002DF3D000F05AFCA0EB0800FE
:10123000A842EDD8F0E70A6942F29243C1F249238D
:101240001A424FF0290209D1C96842F29243C0F212
:101250004903194208BF142200E05422019902FBFD
:1012600000F7B94216D26E1C09E000BF0198B842DF
:101270002FD30198013001900198B8420AD2002E74
:10128000F7D0002DF2D000F02BFCA0EB0800A84214
:10129000ECD8EEE720686FF012010160A16A41F41A
:1012A0000071A162806800F46020B0F5602F0CD15D
:1012B000207B50B9A06A20F48070A062A06AC004AC
:1012C00003D4A06A40F00100A062002002B0BDE893
:1012D000F081A06A40F00400A062002084F824009D
:1012E000032002B0BDE8F08110B5044690F8240058
:1012F000012804BF022010BD012084F824002046EC
:10130000FFF760FC18B1002184F8241010BD42F2F0
:10131000044C2168A26AC4F2010C40F201339A43E2
:101320000CF57F7E02F580727145A26207D0A26A39
:1013300022F48012A2624A68520519D41DE0DCF83A
:10134000002012F4702FF2D0A26A42F60003C4F219
:10135000010342F480129942A26205D042F2004297
:10136000C4F20102914208D1DCF80020520504D5F4
:10137000A26A012363F30D32A262A36A0022DB0496
:101380004FF0000344BFE36A23F00603E36284F8EE
:1013900024206FF002020A608A6802F46022B2F52B
:1013A000602F0BD1714504D08A6842F4A0028A6094
:1013B00010BDDCF8002012F4702FF5D08A6842F4DA
:1013C00080128A6010BD00002DE9F04105460068DA
:1013D00042F60006C4F201069046B0420F4605D020
:1013E00042F20041C4F2010188420AD142F20440B3
:1013F000C4F20100006810F4702F1CBF0120BDE88A
:10140000F08195F82400012804BF0220BDE8F08196
:10141000012085F824002846FFF7D4FB044628B1B4
:10142000002085F824002046BDE8F08142F2044007
:101430002968AA6AC4F2010040F601739A4300F5D4
:101440007F7302F580729942AA6207D0A86A20F4DD
:101450008010A8624868400518D512E0026812F4AE
:10146000702FF3D0AA6AB14242F48012AA6205D06A
:1014700042F20042C4F20102914207D100684005E5
:1014800004D5A86A012262F30D30A862AA6A00207E
:10149000D2044FF0000244BFEA6A22F00602EA6278
:1014A00085F82400286A40F64932C0F6000240F66A
:1014B000B93340F69D3600F1280CC0F60003C0F6A3
:1014C00000068CE84C006FF002020A608A6843460E
:1014D00042F480728A604C313A4600F07BF9286809
:1014E000816801F460228168B2F5602F0CBF41F47D
:1014F000A00141F4801181602046BDE8F081000028
:1015000010B5044690F82400012804BF022010BD45
:10151000012084F824002046FFF7EAFA28B9A16ADE
:1015200041F2011291430131A162002184F824109B
:1015300010BD000010B5044690F82400012804BF37
:10154000022010BD012084F824002046FFF7D0FAC5
:10155000B0B92268216A936823F48073936091F88C
:101560002120022A0CD1084600F00EF8A16A10B121
:1015700041F0400103E041F2011291430131A162C7
:10158000002184F8241010BD014690F821000228A3
:1015900013D10868D1E90FC3026822F00E0202607D
:1015A000026822F001020260012000FA03F2CCF886
:1015B000042081F82100002002E00420886301203B
:1015C000002281F82020704710B50168D0E90FCEC5
:1015D000DCF800200B685C0727D5042404FA0EF41D
:1015E000144022D00A68920603D40A6822F004024A
:1015F0000A6002682F21C4F202018A4240F204010B
:10160000C4F202015ADD3023C4F202039A426DD0C3
:101610004423C4F202039A426BD05823C4F202035B
:101620009A426BD14FF4802370E09C072AD50224A4
:1016300004FA0EF4144025D00A68920606D40A680B
:1016400022F00A020A60012180F8211002682F218D
:10165000C4F202018A4240F20401C4F2020139DDFF
:101660003023C4F202039A4256D04423C4F2020348
:101670009A4254D05823C4F202039A4254D14FF4F0
:10168000003359E01B0758BF10BD082303FA0EF3BF
:101690001A4012D00A6822F00E020A60012101FAF3
:1016A0000EF2CCF80420816380F82110016B002237
:1016B000002980F8202018BF884710BD0823C4F2F5
:1016C00002039A4218D01C23C4F202039A4215D195
:1016D00040231BE00823C4F202039A4222D01C23B9
:1016E000C4F202039A421FD1202325E04FF4806305
:1016F0000CE04FF4804309E0042307E001F16804A3
:101700004FF08063A24208BF4FF480030B60C16AB0
:101710000029D2D0884710BD4FF400730CE04FF47D
:10172000005309E0022307E001F168044FF0007361
:10173000A24208BF4FF400130B60816A0022002907
:1017400080F82020B9D0884710BD0000014600284D
:101750004FF0010008BF70472DE9F043D1F800C0F9
:101760004FF6F873CBF6FD734CF6CD426344CCF6DE
:10177000CC42A3FB02236FF0030707EA9303002781
:1017800001F10C09C4F20207D1E9012E99E87002B7
:10179000D1F81C80C1E90F73022381F82130DCF8F5
:1017A000003043F6F077BB431A4342EA0E0222436D
:1017B0002A43324342EA090242EA0802CCF80020F6
:1017C00000228A6381F8210081F820200020BDE8F2
:1017D000F043704710B5044690F82000012820D04F
:1017E000012084F8200094F82100012816D102205D
:1017F00084F821000020A063D4F800C0DCF80000C9
:1018000020F00100CCF800002046FFF771FA2068B4
:10181000E26A01683AB141F00E010AE0002084F862
:101820002000022010BD21F004010160016841F098
:101830000A010160016841F001010160002010BD52
:10184000B0B5044600F04CF9054640F2AC10C2F2C7
:1018500000000078611C18BF044400BF00F040F98C
:10186000401BA042FAD3B0BD80B5B0F5807F09D04F
:10187000B0F5007F09D0B0F5806F18BF80BD01F0D2
:1018800083FF80BD01F0B2FF80BD01F02DFF80BD60
:1018900080B540F21441C4F201010A68024208BF57
:1018A00080BD0860FFF7E0FF80BD00002DE9F04F2C
:1018B00084B00E680290002E00F0038140F20C4EBE
:1018C00040F2004741F200420298C4F2010EC4F215
:1018D0000107C4F201020423002401254FF0000A8D
:1018E0004FF00009904208BF032300930AE000BFB5
:1018F00001250E680AF1010A36FA0AF204F104041D
:1019000000F0DF8005FA0AFB16EA0B08F1D04A68FE
:101910004FF6FF73C1F210039A4211DC122A54D819
:101920000298DFE802F0350A4347535353535353A9
:10193000535353535353534A4E00D1F80C9045E040
:101940004FF6FF73C1F221039A4210DC0023C1F26B
:10195000110302989A421BD00023C1F212039A424B
:1019600016D00023C1F221039A4211D02EE00023A9
:10197000C1F2220302989A420AD00023C1F2310335
:101980009A4205D00023C1F232039A421ED100BF11
:101990008A6842B1012A14BFC0F814B0C0F810B070
:1019A0004FF0080912E04FF004090FE0CA6802F195
:1019B00008090BE04FF0000908E0CA6802F10409C9
:1019C00004E0CA6802F10C0900E0029822460346CE
:1019D000B8F5807F24BF203A04331D684FF00F0C08
:1019E0000CFA02F6B54309FA02F22A431A60CA79E0
:1019F000D2067FF57DAF41F21803CDF80490C4F212
:101A000002031A68F34642F001021A601A684FEAAC
:101A10009A0E02F001020392039AA7F57E72B9466C
:101A200052F82E3004F00C0740F600060CFA07F5C9
:101A3000C4F20106B04223EA050C10D040F6004380
:101A4000C4F2010398420CD041F20003C4F2010336
:101A50009842009B4FF0010508BF022303E00023DA
:101A600000E001230125BB4043EA0C0342F82E307D
:101A70004E684F46F202D9F8082054BF22EA080205
:101A800042EA0802DE46DDF80490BA60DEF8002083
:101A9000B30254BF22EA080242EA0802CEF800204C
:101AA0007A68B30354BF22EA080242EA08027A6065
:101AB0003A68F30354BF22EA080242EA08023A6095
:101AC00017E704B0BDE8F08F8068084018BF012018
:101AD00070470000002A08BF090401617047000038
:101AE00041F2DC50C2F200000068704770B5B0B33C
:101AF000044690F83D0028B9002084F83C002046B8
:101B000000F058F9242084F83D002068016821F095
:101B100001010160016841F400410160016821F4A4
:101B20000041016001F0A6F848F28041C0F21E01B8
:101B300040F60012666888424FF00001C0F23D0294
:101B400048F2A16C4FF0000338BF01219042C0F26F
:101B5000010C38BF0123664538BF0B460BB101208D
:101B600070BD4DF68361C4F21B31A0FB01122168E8
:101B7000930C4D68664525F03F0545EA92424A6060
:101B80000A6A22F03F0C09D34FF496725A4344F686
:101B9000D353C1F26203A2FB03239B095A1C42EAFE
:101BA0000C020A6248F2A063CA69C0F201039E42B5
:101BB0004CF6FF7322EA030C0AD801387200B0FB1E
:101BC000F2F001306FF31F30042898BF04202BE09F
:101BD000A368A0F1010E9BB119207043BEFBF0F089
:101BE0000422013062F31F30000512D09BB119208E
:101BF0007043BEFBF0F00422013062F31F3011E0AD
:101C000006EB4600BEFBF0F001306FF31F3000051D
:101C1000ECD1012008E006EB4600BEFBF0F00130FD
:101C20006FF31F3040F4004040EA0C00C8610868C0
:101C3000D4E9072320F0C0001043184308608868E7
:101C400048F2FF3204F10C0690434CCE1843104387
:101C5000A5698860C86820F0FF0030432843C86049
:101C6000086840F00100086000202021206484F80A
:101C70003D10206384F83E0070BD00002DE9F04760
:101C800082B01E46174689460446FFF729FF94F89E
:101C90003D1020290ED102210546C0F21001204638
:101CA00001221923009502F05DF818B994F83C0060
:101CB000012803D1022002B0BDE8F087012120688D
:101CC00084F83C100168DDF82880C90703D1016859
:101CD00041F00101016001684FF0000A21F4006148
:101CE0000160212084F83D00102084F83E00C4F8F3
:101CF00040A067626685608D494620850020CFF64A
:101D0000FF70E062204642462B4601F09DFF18B16D
:101D1000012002B0BDE8F087CDF804A02068416939
:101D2000019180690190019806E000BF204641467C
:101D30002A4601F0E1FF20BB208D58B320464146E2
:101D40002A4602F0B3F8E0B9606A2168024612F848
:101D5000013B0B616262628D013A6285228D571EE2
:101D600027854B693F0418BF13F00403DED0437886
:101D700002300B616062608D01386085901E2085A5
:101D8000D4E7206C0428C3D12068016841F40071B5
:101D90000160BDE72068016841F400710160202006
:101DA00084F83D00002084F83E0084F83C0002B036
:101DB000BDE8F08710B586B0016845F20040C4F276
:101DC000000081424FF00001CDE90411CDE902117C
:101DD00001D006B010BD41F21804C4F2020421681B
:101DE00000F5384041F008012160216801F0080148
:101DF00001910199C02102911221039103210591C2
:101E000002A9FFF753FD606840F40010606060684D
:101E100000F400100190019806B010BD40F2AC1023
:101E200041F2DC51C2F20000C2F2000100780A68FF
:101E3000104408607047000080B542F20000C4F210
:101E40000200016841F010010160032000F06AF80F
:101E50000F2000F005F800F02BF8002080BD0000F6
:101E6000B0B540F2AC12C2F2000240F21C0112788E
:101E7000C2F200014FF47A730968B3FBF2F2044630
:101E8000B1FBF2F1084601F0D3F80F2C4FF0010539
:101E90000CD858B94FF0FF3021460022002500F041
:101EA00031F840F2B010C2F2000004602846B0BD24
:101EB00082B041F21800C4F202000168022241F02F
:101EC00001010160016801F001010191019941687E
:101ED00041F080514160406800F0805000900098CF
:101EE0000420C4F20100016862F31A61016002B0CB
:101EF0007047000080B504F077FB80BD80B504F02A
:101F000087FB80BD70B514460D46064604F090FB75
:101F10002946224602F0E2F90146304604F090FBE1
:101F200070BD000080B504F09DFB80BD80B501F060
:101F3000070C0CEB8C0C00EBCC0C0CF1100C01EB37
:101F4000810E090600EBCE0058BF00F5A87C4AB10F
:101F500001208CF80C00180CACF80A000020ACF83A
:101F6000083080BD00208CF80C000020ACF8063052
:101F700080BD00007047000080B501EB8102D0F801
:101F8000D43200EBC200426A184603F0BBF880BDB1
:101F900080B501EB8102D0F8D43200EBC200D0F85A
:101FA0006421184603F010F980BD000010B5044606
:101FB000080601F0070000EB800104EBC10205D424
:101FC00002F5A871002382F8513103E0012302F1E8
:101FD0001001537494F890220870012A04BF022063
:101FE00010BD2068012284F8902203F013FD002028
:101FF00084F8900210BD0000B0B50446007901F0ED
:102000000F02824284BF0120B0BD080601F0070024
:1020100000EB800104EBC10205D402F5A871002396
:1020200082F8513103E0012302F11001537494F856
:1020300090220025012A8D70087004BF0220B0BDD7
:102040002068012284F8902203F084FD284684F859
:102050009052B0BDB0B5006848F2C00CB0F8504026
:1020600091F800E0530404EBCE0400EB440416D4D2
:10207000B4F80C448B696FF39F241B1B38BF0023FB
:102080008B611AD9520624D430F82E2040F60F73F3
:102090001A4042EA0C0220F82E20DCB93BE0B4F8EA
:1020A00004448B696FF39F241B1B38BF00238B6193
:1020B00013D952061DD434BB2DE030F82E3043F630
:1020C0000F752B400CF5FE556B4020F82E30520654
:1020D000DAD504B34B694A8917E030F82E3043F65D
:1020E0000F752B400CF5FE556B4020F82E30520634
:1020F000E1D530F82E2040F60F731A4042EA0C0268
:1021000020F82E203CB14B690A891946234604F079
:10211000BBF82046B0BD2046B0BD0000F0B581B090
:10212000074600680D46B0F850300978164603EBB4
:10213000C102730600EB420230D4B2F80C24AB6942
:102140006FF39F229B1A38BF0023AB6157D97304EA
:1021500009D430F8213040F60F7633404CF2800637
:10216000334320F8213095F82430012B40F06C8166
:10217000D5E904E4D5E9076304EB020CB418734510
:10218000C5F814C0EC6180F0D680002B00F004810B
:1021900000229E462A6285F8242001E1B2F8042438
:1021A000AB696FF39F229B1A38BF0023AB613BD909
:1021B000730409D530F8213040F60F7633404CF2E5
:1021C0008006334320F8213095F82430012B40F06D
:1021D0003B81D5E90436D5E9074E06EB020C1444E1
:1021E0009E45C5F814C0EC6180F0A9800026BEF1C0
:1021F000000F85F8246040F0A5809646A3E06A7839
:10220000012A26D072BB0C01B0F8503004340444CB
:102210002344B3F800446FF39F24A3F80044B3F8B9
:10222000004444F400441BE06A78012A2ED0B2BB7B
:102230000B01B0F850C0043303446344B3F80044C6
:102240006FF39F24A3F80044B3F8004444F400441F
:1022500023E00C01B0F8503004340444234400243B
:10226000A3F80044012A2ED0B2BB0B01B0F85020D5
:102270000C3318441044B0F800246FF39F22A0F8E8
:102280000024B0F8002442F4004223E00C01B0F82E
:1022900050300434044423440024A3F80044012AA9
:1022A0002DD0AABB0B01B0F850200C3318441044B9
:1022B000B0F800246FF39F22A0F80024B0F80024A7
:1022C00042F4004222E00B01B0F850200C331844D5
:1022D00010440022A0F800243846FFF74DFE700499
:1022E00000F1B2803868297840F60F7330F8212069
:1022F0001A404CF280031A4320F82120A4E00B017D
:10230000B0F850200C33184410440022A0F80024E8
:102310003846FFF731FE700440F19680386829781E
:1023200040F60F7330F821201A404CF280031A4314
:1023300020F8212088E0A3EB0E022A6230E0AEEB09
:1023400003069E462E626A78012A1CD0002A6AD1B2
:1023500009010431B0F85020014401F580618B5A25
:10236000BEF13F0F6FF39F238B5242D35FEACE66DD
:102370004FEA5E13565A4FF0FF3408BF04EB5E136A
:1023800046EA83234CE00901B0F8502004310144AF
:102390001144A1F800E446E0002385F82430964675
:1023A0006A78012A1CD0002A48D109010C31B0F802
:1023B0005020014401F580618B5ABEF13F0F6FF34D
:1023C0009F238B5220D35FEACE664FEA5E13565AA4
:1023D0004FF0FF3408BF04EB5E1346EA83232AE084
:1023E0000901B0F850200C3101441144A1F800E477
:1023F00024E0BEF1000F12D00EF00103545A03EB9B
:102400005E0344EA83230DE0BEF1000F12D00EF00C
:102410000103545A03EB5E0344EA83230DE0535A4D
:1024200043F4004353522A891FFA8EF3614603F0A6
:102430004FFF09E0535A43F4004353526A891FFA8D
:102440008EF3614603F044FF3868297840F63F7305
:1024500030F821201A4048F2B0035A4020F82120D9
:1024600001B0F0BD01F0070101EB810100EBC100FB
:10247000D0F86C0170470000B0B50546080601F0C1
:10248000070000EB800105EBC10C05D40CF5A87129
:1024900000248CF8514104E001240CF110018CF867
:1024A000114008700A61022BCB7004BF0020087134
:1024B00095F89002012804BF0220B0BD28680122CF
:1024C00085F8902203F08CF9002085F89002B0BDC9
:1024D00010B501F0070C0CEB8C0100EBC10E00688D
:1024E0000EF5A8710024CEF86421CEF86831CEF83C
:1024F0006C418EF851418EF850C103F085FB0020ED
:1025000010BD0000B0B50446007901F00705854212
:1025100084BF0120B0BD080609D401EB810004EBA3
:10252000C00000F5A871002280F8512107E005EBFA
:10253000850004EBC000012200F11001427494F800
:102540009002012201288A700D7004BF0220B0BDE4
:10255000206884F8902203F03DFB25B9206804F53B
:10256000267103F0F5FA002084F89002B0BD000057
:1025700080B501F0070C0CEB8C0100EBC10101F8F8
:1025800010CF4FF0010C01F1140781F824C04FF077
:10259000000E87E80C4000680B6281F801C003F070
:1025A00033FB002080BD0000B0B584B00446006855
:1025B00003F066FE010417D441051AD4410428D45F
:1025C00081042CD4C10430D4010547D4810500F125
:1025D0008C80C00506D52068B0F8441021F48071C5
:1025E000A0F8441004B0B0BD204601F0B1FE04B024
:1025F000B0BD2068B0F8441021F48061A0F8441008
:10260000204600F00DF92046002100F027F904B023
:10261000B0BD2068B0F8441021F480411AE0206871
:10262000B0F8441021F4005114E02068B0F84010D4
:1026300021F00401A0F84010B0F8401021F008018A
:10264000A0F84010204600F0FDF82068B0F84410D3
:1026500021F48051A0F8441004B0B0BDD4F800E0DB
:102660006FF00103AEF10402EC46114631F8040F9D
:102670000CEB030502330E2B6880F7D1BEF8400047
:1026800040F00100AEF84000BEF8400020F001002C
:10269000AEF84000BEF844004005FBD5BEF844004B
:1026A0006FF0010320F48060AEF844000CEB0300EF
:1026B000408802330E2B22F8040FF7D1BEF84000F9
:1026C00040F00800AEF84000BEF8440020F400607E
:1026D000AEF84400BEF8400040F00400AEF8400000
:1026E000204600F0F3F804B0B0BD2068B0F8441004
:1026F00021F40071A0F84410204600F0A9F804B0BD
:10270000B0BD0000B0B5002853D0044690F8910247
:1027100028B9002084F89002204600F057F80320E2
:1027200084F8910220680021617103F007FA94E8AF
:102730000700237B03F06CF9C0BB2068002103F085
:10274000BDFD98BB207998B1207904F128010022C1
:102750000123002501F8185C013501F8173C01F848
:10276000152C41E902220A60854201F12801F1D3CA
:10277000B0B100EB8000C00000210022002300BFA8
:10278000A518283285F85031904203F1010385F8ED
:10279000511185F85311C5E95811C5F86811EFD1E9
:1027A00094E80700237B03F0BBF920B1022084F8F2
:1027B00091020120B0BD00250120657384F89102CB
:1027C000206803F0ABF92846B0BD000080B582B0A8
:1027D000006845F60041C4F20001884201D002B011
:1027E00080BD41F21C00C4F202000168002241F4E5
:1027F000000101600068012100F4000001900198CF
:102800001320FFF77FFB1320FFF778FB1420012133
:102810000022FFF777FB1420FFF770FB02B080BDAA
:1028200010B504468079022818BFFEF7C3FAD4F821
:10283000D402012102F0BCFDD4F8D40202F076FDEE
:1028400010BD000080B5D0F8D40202F099FD80BD23
:1028500080B5D0F8D40202F09DFD80BD10B50446CD
:1028600090F89002012804BF022010BD012084F8D6
:1028700090026173206803F023FD002084F8900229
:1028800010BD000080B5D0F8D42200F526711046A6
:1028900002F09AFD80BD000010B5044690F8900249
:1028A000012804BF022010BD2068012184F8901285
:1028B00003F0CCFC20460121FFF75CFB206803F00D
:1028C0002BF9002084F8900210BD000010B50446DA
:1028D000D0F8D40202F0B8FDA07A002808BF10BDDD
:1028E0004EF61050CEF20000016841F00601016082
:1028F00010BD000080B5012818D0022841D0102852
:102900003DD141F20401C4F202010A6851F8040CFD
:10291000C00134D5C2F383402EA3185CD2033FD448
:1029200040F60012C0F23D02504345E041F204007F
:10293000C4F20200C16940F202320A40B2F5817F5E
:1029400004BF4FF4004080BD01F44071B1F5407FF9
:102950000DD0B1F5007F12D1026A920744BF49F64B
:10296000404080BDB1F5407F1CBF002080BD50F8C5
:10297000040C4FF22441800301EAE07080BD002086
:1029800080BD00F089F941F20401C4F20201096836
:102990000222C1F3813102EB4101B0FBF1F080BDB5
:1029A0000A6810A3C2F340429A5C41F20023C0F2CD
:1029B0007A03B3FBF2F250430968490248BF80BD75
:1029C0004AF6AB214000CAF6AA21A0FB0101480843
:1029D00080BD00BF02030405060708090A0B0C0DA1
:1029E0000E0F1010010200002DE9F04182B00446E4
:1029F000007841F21C06C007C4F202064ED03068CF
:102A0000C0000BD430684FF0010840F080503060B7
:102A1000306800F080500190019801E04FF000080C
:102A200047F20007C4F200073868C00512D43868BE
:102A300040F480703860FFF753F805463868C005E9
:102A400008D4FFF74DF8401B6428F7D9032002B0E3
:102A5000BDE8F081706810F4407012D0616801F434
:102A6000407188420DD0706840F24042C4F2422268
:102A7000012320F4407113600023C00713607160CC
:102A800029D17068616820F440700843B8F1000FE4
:102A9000706003D0306820F080503060206881077B
:102AA00007D556F8181CA26821F44041114346F896
:102AB000181CC00603D4002002B0BDE8F08156F80F
:102AC000180CE16820F48000084346F8180C002038
:102AD00002B0BDE8F081FFF703F8054641F2883700
:102AE00070688007CDD4FEF7FBFF401BB8424FF063
:102AF0000300F5D9ECE700002DE9F04381B0002890
:102B000000F0878042F20008C4F202080446D8F8B8
:102B100000000D4600F0070088420CD2D8F80000F3
:102B200020F007002843C8F80000D8F8000000F0A3
:102B30000700A8426DD1206841F204098107C4F260
:102B4000020917D5410705D5D9F8001041F4E06115
:102B5000C9F80010010705D5D9F8001041F46051FB
:102B6000C9F80010D9F80010A26821F0F001114353
:102B7000C9F80010C00745D1D8F8000000F00700E0
:102B8000A8420CD9D8F8000020F007002843C8F864
:102B90000000D8F8000000F00700A84239D12068F2
:102BA000410707D5D9F80010E26821F4E06111432C
:102BB000C9F80010000708D5D9F80000216920F4F1
:102BC000605040EAC100C9F8000000F077F8D9F879
:102BD000001047F64062C1F30311C0F60002515CD9
:102BE00040F21C0220FA01F140F2B010C2F20000E3
:102BF0000068C2F200021160FFF732F9002001B054
:102C0000BDE8F0836068012807D159F8041C8903E6
:102C10000CD4012001B0BDE8F08359F8041C02284F
:102C200002D18901F5D501E08907F2D5D9F8001064
:102C300021F003010843C9F80000FEF751FF0646E2
:102C400041F28837D9F80000616800F00C00B0EB61
:102C5000810F91D0FEF744FF801BB842F2D90320C8
:102C600001B0BDE8F083000040F21C00C2F2000099
:102C70000068704780B5FFF7F7FF41F20401C4F226
:102C80000201096847F65062C1F30221C0F6000252
:102C9000515CC84080BD000080B5FFF7E5FF41F200
:102CA0000401C4F20201096847F65062C1F3C2216F
:102CB000C0F60002515CC84080BD000041F2040C27
:102CC000C4F2020CDCF8003003F00C00082841F2DA
:102CD0000020C0F27A0018BF7047C3F383420AA1F4
:102CE0008A5CD90305D440F60010C0F23D00504381
:102CF0007047DCF8001008A3C1F34041595C504311
:102D0000B0FBF1F0704700BF020304050607080995
:102D10000A0B0C0D0E0F1010010200002DE9F041FE
:102D200082B0002800F0C4800446007841F200061A
:102D3000C007C4F2020643D0706800F00C000428FB
:102D400017D0706800F00C00082802D17068C0032A
:102D50000FD465689DB1B5F5803F06D03068B5F5F4
:102D6000A02F0DD140F480203060306840F48030D6
:102D70000CE03068800323D5606808BB98E03068B9
:102D800020F480303060306820F480203060FEF71E
:102D9000A7FE002D054610D03068800310D4FEF742
:102DA0009FFE401B6428F7D908E100BFFEF798FE9C
:102DB000401B64284FF0030077D830688003F5D4B7
:102DC0002078800718D5706810F00C0F07D0706855
:102DD00000F00C00082826D17068C00323D43068A6
:102DE000800702D52069012862D13068616920F02E
:102DF000F80040EAC1003060207800073DD5A069A6
:102E000038B30020C4F242200121C0F88014FEF73C
:102E100067FE0546706A80072DD4FEF761FE401BF1
:102E20000228F7D9CAE02069002840F20000C4F265
:102E3000422000F09A8001210160FEF751FE054614
:102E400030688007D1D4FEF74BFE401B0228F7D92B
:102E5000B4E00020C4F242200021C0F88014FEF744
:102E60003FFE0546706A800707D5FEF739FE401B16
:102E70000228F7D9A2E001F049FC207840071BD4D2
:102E8000E5698DB1706800F00C0008284CD1012D67
:102E90000ED07068216A00F480328A4208D1616ADB
:102EA00000F47010884203D1002002B0BDE8F08128
:102EB000012002B0BDE8F081F069C0000BD4F069D8
:102EC0004FF0010840F08050F061F06900F0805050
:102ED0000190019801E04FF0000847F20007C4F2AA
:102EE00000073868C00510D4386840F48070386036
:102EF000FEF7F6FD054600BF3868C00505D4FEF7AD
:102F0000EFFD401B6428F7D958E0E568002D3DD05F
:102F1000012D05D0306A052D39D140F00400306212
:102F2000306A40F0010038E00027C4F24227002058
:102F30003866FEF7D5FD022D05460BD130688001BD
:102F400054D5FEF7CDFD401B02284FF00300F5D904
:102F5000ABE700BF30688001A6D5FEF7C1FD401B7E
:102F600002284FF00300F5D99FE700210160FEF72A
:102F7000B7FD0546306880077FF53EAFFEF7B0FD30
:102F8000401B02284FF00300F4D98EE7306A20F08E
:102F900001003062306A20F004003062FEF7A0FDCC
:102FA000002D054641F2883714D000BF306A8007F3
:102FB00013D4FEF795FD401BB842F7D9032002B0A9
:102FC000BDE8F081FEF78CFD401BB8424FF00300D6
:102FD0003FF66BAF306A8007F4D4B8F1000F3FF4CE
:102FE0004FAFF06920F08050F06149E7206AB0F5FA
:102FF000803F05D17168A26821F4003111437160EE
:103000007168626A21F474111043084370600120F2
:103010003866FEF765FD0446306880013FF544AF31
:10302000FEF75EFD001B02284FF00300F4D93CE7D9
:1030300080B501F09DFB80BD704700007047000027
:1030400010B590F83C20012A4FF0020231D0012344
:1030500080F83C3080F83D200268D2F804E0D2F8D5
:1030600008C00C682EF07003234340F2FF74C4F2D2
:103070000004A242536005DCB2F1804F0ED040F252
:10308000004307E042F60043C4F201039A4205D030
:1030900040F60003C4F200039A4204D149682CF0C0
:1030A0008003194391600121002280F83D1080F8CF
:1030B0003C20104610BD0000002804BF01207047CE
:1030C00010B5044690F83D0028B9002084F83C0073
:1030D000204600F01FF8022084F83D002068211DE2
:1030E00001F0B4FB012084F8460084F83E0084F827
:1030F0003F0084F8400084F8410084F8420084F8DE
:10310000430084F8440084F8450084F83D00002022
:1031100010BD000010B582B0006840F20041C4F25A
:103120000001884214D0B0F1804F27D141F21C0039
:10313000C4F202000168002241F001010160006850
:10314000022100F00100019001981C201C2410E0D5
:1031500041F21C00C4F202000168002241F00201A9
:1031600001600068032100F00200009000981D201B
:103170001D24FEF7C7FE2046FEF7C0FE02B010BDBC
:1031800090F83D1001291CBF01207047022180F8F2
:103190003D10006840F2FF72C168C4F20002904224
:1031A00041F00101C16005DCB0F1804F0ED040F26A
:1031B000004107E042F60041C4F20101884205D017
:1031C00040F60001C4F20001884206D1816801F096
:1031D0000701062904BF00207047016841F0010182
:1031E00001600020704700000146006841F21113A1
:1031F000C26822F00102C260026A1A4208D1026A61
:1032000040F244431A4203D1026822F001020260F4
:103210000122002081F83D207047000010B50446CF
:1032200090F83C0001284FF0020008BF10BD0122B9
:1032300084F83C2084F83D0020684FF6777382685C
:103240009A4382600A684F2A0FDC1F2A22DD202A57
:1032500023D0302A21D0402A4DD14B68CA68194664
:1032600001F0A2FB206840213BE06F2A17DDB2F598
:10327000005F20D0B2F5805F2AD0702A3BD1D1E91F
:10328000012CCB68614601F02FFB2068816841F07A
:1032900077011AE00AB1102A2DD1114621E0502AF7
:1032A00018D0602A27D14B68CA68194601F08EFBF6
:1032B0002068602115E0D1E9012CCB68614601F05E
:1032C00013FB2068816841F48041816000200BE09D
:1032D000002009E04B68CA68194601F065FB2068C8
:1032E000502101F00DFB0020012184F83D10002148
:1032F00084F83C1010BD0120F6E700007047000084
:10330000B0B504460068C168026902EA0105A90770
:103310001DD4680731D4280747D4E8065CD4E807F1
:1033200073D128067BD4680606D520686FF040016B
:103330000161204600F0F4F8A80658BFB0BD20682F
:103340006FF0200101612046FFF778FEB0BD6FF0FD
:1033500002010161012121778069800703D02046A5
:10336000FFF7CCFF05E0204600F064F8204600F0AF
:1033700063F8002020776807CDD520686FF004013E
:10338000016102212177806910F4407F03D020463B
:10339000FFF7B4FF05E0204600F04CF8204600F0AF
:1033A0004BF8002020772807B7D520686FF0080178
:1033B000016104212177C069800703D02046FFF70F
:1033C0009DFF05E0204600F035F8204600F034F877
:1033D00000202077E806A2D520686FF01001016177
:1033E00008212177C06910F4407F03D02046FFF701
:1033F00085FF05E0204600F01DF8204600F01CF88F
:1034000000202077E8073FF48CAF20686FF00101BF
:103410000161204600F012F828067FF584AF20688D
:103420006FF0800101612046FFF706FE68067FF518
:1034300083AF7AE7704700007047000080B50068EE
:1034400040F20041C4F20001884229D0B0F1804F1F
:103450002ED140F21820C2F20000018841F0800114
:10346000018041F2D851C2F20001097803291FD12D
:10347000018849071CD50188090719D40188C906A4
:1034800017D50188890614D440F21A20C2F2000030
:10349000008840F27411C2F200014860486814E0EC
:1034A00040F21820C2F20000018841F480710180CE
:1034B00080BD0188C906FBD40088800658BF80BD46
:1034C00040F27410C2F2000080680421FDF7EEFBA8
:1034D00080BD0000B0B5044690F83C0001284FF0D4
:1034E000020008BFB0BD012584F83C5084F83D00BF
:1034F000204601F00DFA00284FF0010009D12068A4
:10350000C16821F04001C160C16821F48041C160FF
:103510000020002184F83D5084F83C10B0BD00002C
:103520007047000080B5012001F01CF94FF4FA60EB
:10353000FDF714FC80BD0000B0B50C46402160F3DF
:10354000C501084601F00EF9013C082514F8010FE9
:1035500001F002F9013DF9D1B0BD000080B540F69F
:10356000AD60C2F20000017841F00402027041F047
:103570000C00C0B201F0F6F880BD000080B502205A
:1035800001F0F0F84FF4FA60FDF7E8FB80BD0000B1
:1035900070B540F6B061C2F2000140F6AC6640F68C
:1035A000AE650870C2F20006082101284FF0040041
:1035B000C2F2000531704FF0040488BF0820287063
:1035C000FDF7AEFB3220FEF73BF93078FDF7F8FB54
:1035D0004FF47A70FEF734F9302002F0FDFF41F22B
:1035E0009410FDF7BBFB302002F0F6FF41F294107F
:1035F000FDF7B4FB302002F0EFFF41F29410FDF72D
:10360000ADFB202002F0E8FF6420FDF7A7FB28783F
:1036100040F0200001F0A6F840F6AD60C2F20000D4
:103620000470FFF79BFFFFF77DFF40F6AF60C2F22B
:10363000000002210170062001F094F841F294107C
:10364000FDF78CFB40F29C11C2F200010020FFF755
:1036500073FF40F2A411C2F200010120FFF76CFFDA
:10366000FFF78CFF70BD000010B50178002908BF7E
:1036700010BD441EC8B201F06FF8A17801340029D2
:10368000F8D110BD80B540F6B062C2F200021278E7
:103690008A4298BF511EC9B204A212F821100844F0
:1036A00040F08000C0B201F05DF880BD0000000075
:1036B00040000000140000005400000010B588B065
:1036C00004F03CF96C4602460B4604A12046FCF788
:1036D000A7FD2046FFF7C8FF08B010BD252E3466B1
:1036E000202020200000000080B51720FEF702FCFB
:1036F00040F21820C2F20000018821F0010101808F
:10370000018841F002010180018821F400710180EB
:1037100041F2D851C2F200010A78032A0ED0022ADF
:1037200017D0012A28D1028842F0100202800288B4
:1037300022F0200202800220087021E0028842F07C
:1037400010020280028822F020020280022008700B
:1037500016E002880388120962F3041383F0100252
:10376000028002880388520962F3451383F0200225
:1037700002800220087003E0018841F4007101809A
:103780001720FEF7BBFB80BD80B52820FEF7B2FBFB
:1037900040F21820C2F20000018841F001010180CE
:1037A000018821F002010180018821F004010180DB
:1037B000018821F008010180018821F010010180B9
:1037C000018821F020010180018821F04001018061
:1037D000018821F40071018041F2D850C2F200004A
:1037E000012101702820FEF789FB80BD80B51720DC
:1037F000FEF780FB40F21820C2F20000018821F0A1
:1038000001010180018821F002010180018821F479
:103810000071018041F2D851C2F200010A78032AF6
:103820000CD0022A1DD1028842F0040202800288D4
:1038300022F0080202800320087016E00288038844
:10384000920862F3820383F00402028002880388F4
:10385000D20862F3C30383F00802028003200870D9
:1038600003E0018841F4007101801720FEF746FB58
:1038700080BD000080B541F27810C2F20000FDF773
:1038800059FE41F24850C2F20000FFF7ADFC41F290
:103890009050C2F20000FFF7A7FCFFF743FE0020A4
:1038A0000021FFF7EFFE0FA0FFF7DEFE0020012151
:1038B000FFF7E8FE0FA0FFF7D7FE4FF47A70FDF791
:1038C000BFFFFFF72FFE00200021FFF7DBFE0DA05A
:1038D000FFF7CAFE00200121FFF7D4FE0DA0FFF77D
:1038E000C3FE80BD4572726F722044657465637457
:1038F0006564210053797374656D2048616C74654B
:1039000064000000506C6561736520534554555048
:103910000000000057616974202E2E2E0000000068
:10392000B0B541F2D855C2F200052878022839D145
:1039300040F21824C2F200040BE000BF2088C00649
:103940005CBF20885FEA806022D52878022818BFF3
:10395000B0BD2088C0060BD52088800608D42088FA
:1039600020F04000208002F045FF08200DE000BF5D
:103970002088C006E2D420888006DFD5208820F089
:103980004000208002F046FF102002F043FDDCE7FB
:1039900002F050FF208840F0400020804FF47A7001
:1039A000FDF74EFFB0BD000040F21820C2F200004B
:1039B000018821F001010180018821F0400101808E
:1039C000018821F40071018001888907FCD57047C6
:1039D0002DE9F04381B04FF4FA70FDF731FFFFF7A6
:1039E000A1FD40F21825C2F200052888C00625D5A1
:1039F0002888800622D428884FF4807120F0400067
:103A0000288040F60040C4F2010000224FF0000878
:103A1000FEF760F802F094FC41F2D856C2F20006BC
:103A20003078032852D140F2741740F21A24C2F2BF
:103A30000007C2F200044FF0FF3958E028888006E2
:103A400040F192802888C00600F18E8028884FF4CB
:103A5000807120F04000288040F60040C4F2010050
:103A60000122FEF737F802F083FC41F2D856C2F289
:103A700000063078032829D141F2A81440F27417C7
:103A8000C2F20004C2F20007288840071ED5288829
:103A900000071BD402F046FC2046FDF725FC20461B
:103AA0006421FDF75BFB2046FDF74AFAB86020462B
:103AB000FDF726FDB868398802F0DCFC78624FF427
:103AC000FA70FDF7BDFE30780328DDD001B0BDE807
:103AD000F08300BFF86839693A8802F06DFDF8613B
:103AE000C7F80C80C7F8109030780328EED12888EA
:103AF0004007EBD528880007E8D402F0FFFB2988AF
:103B0000288809060ED4C005EED528884FF07E51CE
:103B100020F480702880786902F0E2FC3862C7F8EF
:103B20001480E1E720F080002880002004E000BF3E
:103B30000130B0F57A7FCDD03A4634F8101052F803
:103B40000C3F8B4202D2116006E000BF3A4652F8A9
:103B5000103F8B4288BF1160A1F29A71CC29E7D83F
:103B6000796901317961E3E7288880065CBF28889C
:103B70005FEAC060AAD4288840F04000288002F0A4
:103B8000A3FE4FF47A70FDF75BFE01B0BDE8F08351
:103B900010B54FF4FA70FDF753FEFFF7C3FC40F287
:103BA0001824C2F200042088C00611D5208880069F
:103BB0000ED440F27410C2F20000D0E9071040F6B3
:103BC000EC12C2F20002C2E9041002F0DFFB11E0C5
:103BD000208880060ED52088C0060BD440F27410D1
:103BE000C2F20000406A40F6EC11C2F200018861A6
:103BF00002F0F6FB41F2D850C2F20000017803292E
:103C000006D12188490748BF10BD21880907F5D48E
:103C100010BD0000FEE700000268516949054FF041
:103C200000010FD56FF4806353612022016380F897
:103C30003D2080F83E10026C42F00402026480F8DD
:103C40003C100121084670472DE9F04182B004463E
:103C5000C06A1D46164610F5803F0F4618BF012862
:103C600023D12068016841F48071016020464FF043
:103C7000011100223346009500F074F850B120681D
:103C80000068C00544BF4FF400702064032002B0F8
:103C9000BDE8F081206940F20208B0F5804FC0F223
:103CA000010808D107F0FE0018E00828D9D0206BE1
:103CB0001228D6D0DAE7062000EAD7102168F030C3
:103CC000086108F10601204632462B4600F09AF8BA
:103CD00018B1012002B0BDE8F081F8B22168324687
:103CE0000861204641462B4600F08CF8002818BF9A
:103CF000012002B0BDE8F081F0B581B00446006853
:103D0000406940071AD415460E464F1C08E000BF14
:103D100020684069400714D52068406940070DD4E9
:103D20002046FFF779FFC8B9002FF5D0FDF7D8FE80
:103D3000002EEDD0401BB042EED9E9E7002001B0E3
:103D4000F0BD00202021206384F83D1084F83E005F
:103D5000216C41F02001216484F83C00012001B075
:103D6000F0BD00002DE9F047DDF8208099461646A9
:103D7000044601F47F078DB203F1010A11E000BF90
:103D800020681821B7F5803F08BF142140582A4603
:103D900008BF2A461040801AB0FA80F04009B042AD
:103DA00020D020681821B7F5803F08BF1421405863
:103DB0002A4608BF2A461040801AB0FA80F040090F
:103DC000B0420CD1BAF1000FEBD0FDF789FEB9F18A
:103DD000000FD5D0A0EB08004845E2D9D0E700207D
:103DE000BDE8F08700202021206384F83D1084F88E
:103DF0003E00216C41F02001216484F83C00012048
:103E0000BDE8F0872DE9F04381B09846914604461D
:103E100001F47F078DB2561C0DE000BF2068182109
:103E2000B7F5803F08BF142140582A4608BF2A46EC
:103E30001040904228D120681821B7F5803F08BF74
:103E4000142141582A4608BF2A46114091420ED0FB
:103E5000416949050FD4002EEDD0FDF741FEB9F1BF
:103E6000000FDBD0A0EB08004845E4D9D6E70020DE
:103E700001B0BDE8F083016841F4007101606FF4A6
:103E800080614161042000E0202000212022216384
:103E900084F83D2084F83E10226C1043206484F89E
:103EA0003C10012001B0BDE8F0830000F0B581B006
:103EB00004460068406900061AD415460E464F1C99
:103EC00008E000BF20684069000614D520684069FA
:103ED00000060DD42046FFF79FFEC8B9002FF5D08D
:103EE000FDF7FEFD002EEDD0401BB042EED9E9E714
:103EF000002001B0F0BD00202021206384F83D1097
:103F000084F83E00216C41F02001216484F83C00DB
:103F1000012001B0F0BD000010B5002A08BF10BD9F
:103F200002394FF0370C4FF0000E00BF0CEB10744D
:103F3000B0F1204F4FEA107338BF03F1300401F89D
:103F4000024F0001013A81F801E0EFD110BD0000FD
:103F5000B0B584B041F2781042F200420021C2F2C2
:103F60000000C4F2010204244FF4602301250391F0
:103F7000CDE9011104730175C361C0E900218160BD
:103F80000561FCF7E1FF68B941F27810C2F2000068
:103F900001A9CDE901550394FCF746FF002804BFB1
:103FA00004B0B0BDFCF706FF10B584B041F2A81014
:103FB000C2F2000042F6000204230021C4F2010212
:103FC00003734FF4602301240391CDE901110175BE
:103FD000C361C0E9002181600461FCF7B5FF78B9D5
:103FE0000220CDE901040720039041F2A810C2F29B
:103FF000000001A9FCF718FF002804BF04B010BDA1
:10400000FCF7D8FE80B582B041F21400C4F2020081
:104010000168002241F0010101600068202100F0E8
:1040200001000190019841F2D810C2F200008161B4
:104030000B200121FDF766FF0B20FDF75FFF02B0AB
:1040400080BD00002DE9F04186B0002641F2180045
:10405000CDE90466CDE90266C4F20200016840F6CB
:10406000004441F0200101600168C4F2010401F044
:104070002001019101990168002241F004010160D1
:1040800001684FF4807801F0040101910199016801
:1040900041F00801016000684FF4807100F00800F1
:1040A000019001982046FDF715FD4FF4E060029065
:1040B0000020C1F2210002ADCDE90306A4F5806025
:1040C0002946FDF7F3FB1820CDE90206012720461B
:1040D00029460497FDF7EAFBCDE902874FF0020875
:1040E00020462946CDE90487FDF7E0FB4FF4007038
:1040F00002A981E8410120462946FDF7D7FB172098
:1041000000210022FDF7FEFE1720FDF7F7FE282014
:1041100000210022FDF7F6FE2820FDF7EFFE06B095
:10412000BDE8F08180B541F21C2045F20041C2F2A9
:104130000000C4F2000148F2A06200234FF4804C5A
:10414000C0F2010280E80E00C0E9033CC0E905337B
:10415000C0E90733FDF7CAFC002808BF80BDFCF7A3
:1041600029FE000010B58CB041F248500021C2F287
:1041700000004FF080420A2340F6C8440B91CDE97D
:104180000911CDE90711CDE90511CDE90311CDE9FB
:104190000011C0E90023C0E902140161802181619E
:1041A000FEF78AFF10BB4FF48050089041F2485050
:1041B000C2F2000008A9FFF731F8B8B941F248503F
:1041C0000024C2F2000003A9CDE90344FFF782F9FD
:1041D00060B941F24850C2F200006946CDE900449E
:1041E000FEF72EFF002804BF0CB010BDFCF7E2FD67
:1041F00080B586B041F2905040F200420021C2F2F8
:104200000000C4F200024FF409734FF6FF7CCDE9C1
:104210000411CDE90211CDE90011C0E90023C0E984
:10422000021C016180218161FEF746FFC0B94FF495
:104230008050029041F29050C2F2000002A9FEF7B5
:10424000EDFF68B90020CDE9000041F29050C2F2C4
:1042500000006946FEF7F4FE002804BF06B080BDEA
:10426000FCF7A8FD80B540F6B46040F20001C2F250
:104270000000C2F20001002200F01CFF002818BF5D
:10428000FCF798FD40F6B46040F22001C2F2000055
:10429000C2F2000101F0F6F8002818BFFCF78AFD11
:1042A00040F6B46040F24411C2F20000C2F20001D4
:1042B00000F08CFC002818BFFCF77CFD40F6B460D1
:1042C000C2F2000001F068F9002818BFFCF772FD87
:1042D00080BD0000FEE70000FEE7000000F00700E0
:1042E00080F00703042B28BF04234FF0FF3C033862
:1042F0000CFA03F338BF0020994381400CFA00F018
:1043000022EA00000843704710B500200021002475
:10431000FFF7B8F907A0FFF7A7F900200121FFF781
:10432000B1F907A0FFF7A0F941F2D850C2F200009E
:10433000047010BD4F534320526561647900000042
:104340002020202E2E2E5345545550204F534300ED
:104350002DE9F04F81B004460068B0F94410B1F186
:10436000FF3F02DD01B0BDE8F08F04F5267140F695
:104370000F7A009121E0B0F8501094F85021236892
:1043800001EBC20103EB4101B1F80C34B4F8562142
:1043900000996FF39F23C4F86C3101F075FF20681A
:1043A000018801EA0A01803101802046FEF76AFA9D
:1043B0002068B0F944100029D4D5B0F8442012F098
:1043C0000F0925D030F829604FEA4908310440F13F
:1043D000E98030F8181001EA0A01803120F818103D
:1043E00009EB890104EBC10B9BF85C110BF5A87775
:1043F000002900F089809BF85311022940F0958034
:10440000204639463246FDF725FE0546B7E000BF97
:104410000188D20628D401EA0A0101F50041018091
:10442000B0F85000217C226800EBC10002EB400094
:10443000B0F80404616A6FF39F20E0620844606290
:1044400020460021FDF798FD607B0028B0D0A06ACF
:104450000028ADD1607B216840F08000C0B2A1F897
:104460004C0000206073A3E70A053FF584AF090400
:104470009ED5018801EA0A0180310180B0F8501010
:1044800094F85021236801EBC20103EB4101B1F81C
:104490000C346FF39F23C4F86C318BB1D4F86411E2
:1044A00071B1B4F8562101F0EFFED4F86401D4F8EC
:1044B0006C110844C4F8640120460021FDF768FD32
:1044C000206801880A053FF573AF01F44051B1F54A
:1044D000405F3FF46DAFB0F8501000F20C42535AF9
:1044E0006FF39F235352D4F860313F2BC0F0DE802E
:1044F000DE068E5A4FEA53174FF0FF3508BF05EB23
:10450000531746EA8723DBE0B0F850103A7801EB06
:10451000C20100EB4101B1F80C546FF39F2575B354
:10452000DBF86411BBF8562126E0397848F2C00365
:1045300030F8212002EA0A021A4320F8212030F83C
:104540002120B0F85030520403EBC10100EB4101CF
:1045500009D4B1F80C546FF39F2585B1DBF86411D1
:10456000BBF85A2108E0B1F804546FF39F2535B128
:10457000DBF86411BBF858212B4601F085FEDBF80F
:104580006C11DBE9590229442844CBF86C11CBF8B3
:1045900064011AB1DBF86001A8424AD93978204693
:1045A000FDF7F6FC30067FF503AF206809EB8901C3
:1045B00030F8182004EBC10302EA0A0101F50041BA
:1045C00020F81810D97C012903F1100112D11A7FAB
:1045D000002A4FF000029A6263D0720636D45A7CE9
:1045E000012A4ED0002A5CD1B0F850200B781B0174
:1045F0000C3334E0F20524D4B0F850700A78266801
:1046000007EBC20706EB4707B7F804749E6A6FF31F
:104610009F27F61B4FF0000538BF2E469E622BD910
:104620005A6ADE6A3A445A62F219DA6201F0ECFA26
:10463000BEE62068394601F0E7FA30067FF5B8AEED
:10464000B3E720463246FDF769FDB1E65A7C012A00
:104650001DD032BBB0F850200B781B01043310443E
:104660001844B0F800246FF39F22A0F80024B0F89B
:10467000002442F4004212E020461146FDF77CFC83
:1046800096E6B0F850200B781B010C3304E0B0F82C
:1046900050200B781B010433104418440022A0F86A
:1046A000002409782046FDF767FC81E63BB103F062
:1046B00001078E5A07EB530346EA832305E08B5A22
:1046C00048F20007CFF6FF773B438B52018843F651
:1046D0000F72114048F2C00202F53F525140018072
:1046E00066E600007047000010B5044640F0040084
:1046F000FCF766FB1420FCF731FB04F0FB00FCF731
:104700005FFB1420FCF72AFB10BD000081B040F2D3
:104710001C00C2F20000006844F6D351C1F26201ED
:10472000A0FB0101480A009000BF0098411E00282C
:104730000091F9D101B0704770470000B0B505464F
:1047400000F0F00008430C4601F046FF44EA051073
:10475000C0B201F041FFB0BD80B50121FFF7EEFF0F
:1047600080BD000080B50021FFF7E8FF80BD00009C
:10477000B0B501380024B4EB106F1CBF0120B0BDF0
:104780004EF21005CEF2000568604FF0FF300F21A9
:1047900001F056FF0720AC6028602046B0BD000045
:1047A00080B5FDF73BFB80BD70B594B00AAC2046E8
:1047B0002821FBF7D0FD002501204FF480310A901D
:1047C000CDE90B150E9002264FF4E010CDE91161F2
:1047D000139020460995CDE90755CDE90555CDE95A
:1047E0000355CDE90155FEF799FAD8B90F20CDE967
:1047F0000506802007904FF48060CDE9080505A8E4
:104800000221FEF779F968B9122001904FF4804037
:1048100003900020049001A8FEF7E6F8002804BFEA
:1048200014B070BDFCF7C6FA7047000080B541F2C5
:104830004850C2F20000FEF763FD80BD80B541F232
:104840009050C2F20000FEF75BFD80BD10B540F253
:10485000FF7E0368C4F2000E42F6004C7045C4F2BD
:10486000010C05DCB0F1804F0AD040F2004203E0B9
:10487000604505D040F60002C4F20002904203D128
:104880004A6823F070031343704505DCB0F1804F94
:104890000AD040F2004203E0604505D040F6000235
:1048A000C4F20002904203D1CA6823F44073134358
:1048B00023F080024B69D1F800E08C681A43604510
:1048C0000260C462C0F828E002D10969CCF8301057
:1048D000012141610169C90708BF10BD016921F0CB
:1048E0000101016110BD0000D0F808C011432CF493
:1048F0007F4C41EA032141EA0C01816070470000CE
:10490000826822F07002114341F007018160704714
:1049100080B500688268D1E900E322F0770C23F0CB
:10492000070242EA0C0242EA0E0C4FEA3312072A4F
:10493000C0F808C009D84FF0000CDFE802F004040A
:1049400004040A1E252C604680BD4FF0010C604611
:1049500080BDBEF1050F04BF012080BD026A036A5D
:1049600023F0010303628369096923F0F00343EA3A
:10497000011181610262002080BD8B680A691946BD
:1049800000F012F8002080BD8B680A69194600F01B
:104990001DF8002080BDD1E9022C0B696146FFF7AC
:1049A000A3FF002080BD0000D0F820C0036A23F0E0
:1049B00001030362836923F0F00343EA02122CF03F
:1049C0000A0319438261016270470000D0F820C0D9
:1049D000036A23F010030362836923F4704343EAFC
:1049E00002322CF0A00343EA011182610162704798
:1049F00010B5D0F8B822C2B101EB810300EB830EF1
:104A00005EF81C4F64B1D0F8C0C201EB81030CEB1F
:104A1000C303D3F820C0B4FBFCF303FB1C4333B146
:104A200000242046C2F8144210BD022010BD00240C
:104A300000220023CEF8004000F010FD204610BDFB
:104A4000B0B5D0F8B852044600F002FCD4F8B81261
:104A5000C5F80C0249B1D4F8BC0205F50371C2686F
:104A6000D5F8040290470020B0BD0220B0BD000080
:104A7000B0B58121044600F03DFB00252046012110
:104A8000E56200F037FB20468221C4F86C5100F04B
:104A900031FBD4F8B802256448B1D4F8BC024068B0
:104AA0008047D4F8B80200F093FEC4F8B852002052
:104AB000B0BD000010B5D0F8BC1269B1D0F8B84252
:104AC00094F80002FF2807D08B6894F80122214651
:104AD0009847FF2084F80002002010BD014640F2F4
:104AE000E0000A22C2F200000A807047014640F24C
:104AF00058004322C2F200000A807047014640F28B
:104B00009C004322C2F200000A807047014640F236
:104B1000EC004322C2F200000A807047F0B581B079
:104B20000546007C4027002808BF4FF40077284640
:104B3000812102223B46402400F0E4FB0126284666
:104B4000012102223B46EE6200F0DCFB2846822176
:104B500003220823C5F86C6100F0D4FB4FF4077002
:104B60002E6400F037FEC5F8B802A8B10746D5F8A4
:104B7000BC02006880470026C7F81462C7F81862B4
:104B8000287CD7F80422002808BF4FF40074284678
:104B90000121234600F0C2FB304601B0F0BD000009
:104BA00080B5D0F8B81271B190F810C0D1F80422D5
:104BB00040230121BCF1000F08BF4FF4007300F047
:104BC000ADFB002080BD022080BD000000290EBF8B
:104BD0000220C0F8BC12002070470000D0F8B822B4
:104BE0000020C2F804127047D0F8B8320020C3F891
:104BF0000812C3F81022704770B582B00446D0F88E
:104C0000B86208780D46002210F060018DF8072088
:104C1000ADF8042010D020291FD1EA881AB300066D
:104C20002AD46878314686F80002204686F80122A8
:104C300000F0AEF8002455E068780B2829D00A2847
:104C40002DD0C0BB94F89C0203283AD101A920467C
:104C5000022200F0B7F8002444E02046294600F084
:104C60008DF802243EE0D4F8BC02294683686878B7
:104C700000220024984735E0D4F8BC02314683680E
:104C800068789847EA882046314600F09BF800246F
:104C900028E094F89C02032819D1002422E094F81B
:104CA0009C02032819D10DF107012046012200F0D2
:104CB00089F8002416E02046294600F05FF8022417
:104CC00010E02046294600F059F802240AE0204668
:104CD000294600F053F8022404E02046294600F05B
:104CE0004DF80224204602B070BD000080B5D0F817
:104CF000B8223AB1D2F8141200294FF0010103D0C2
:104D0000084680BD022080BDC2F81412D2F81012ED
:104D1000D2F8082201638BB2812100F09FFB0021B1
:104D2000084680BD80B5D0F8B42252689047002074
:104D300080BD000080B590F89C22013A022A09D873
:104D40004988012918BF80BD0021C0F8A41200F0D5
:104D500047F880BD00F012F880BD000080B5134612
:104D60000A46002100F0DAFA002080BD80B5134623
:104D70000A46002100F072FB002080BD10B58021A2
:104D8000044600F051FB2046002100F04DFB10BD11
:104D900080B513460A460321C0F894120021C0E9E9
:104DA000573300F0BBFA002080BD000080B505211C
:104DB000C0F8941200210022002300F0AFFA002076
:104DC00080BD000080B513460A460221C0F8941247
:104DD0000021C0E9073300F041FB002080BD000046
:104DE00080B50421C0F8941200210022002300F0B5
:104DF00035FB002080BD000010B540F60C24C2F247
:104E000000040A4602A0214600F024F9204610BD05
:104E100043444320436F6E666967000040F23010E0
:104E20001222C2F200000A807047000010B540F65E
:104E30000C24C2F200040A4602A0214600F00AF93E
:104E4000204610BD43444320496E74657266616319
:104E50006500000040F254100422C2F200000A80F3
:104E60007047000010B540F60C24C2F200040A4658
:104E700002A0214600F0EEF8204610BD53544D69C3
:104E800063726F656C656374726F6E696373000043
:104E900010B540F60C24C2F200040A4602A02146D6
:104EA00000F0D8F8204610BD53544D3332205669D7
:104EB000727475616C20436F6D506F7274000000E6
:104EC00080B51A200880FBF795FF40F25810C2F217
:104ED000000080BD80B5C988012910D190F89C12CE
:104EE0004A1E022A04D20022014641F8082F02E09D
:104EF000032904D1011D0122FFF764FF80BDFFF7E4
:104F00003DFF80BDB0B582B0044648880D464FF0E5
:104F1000FF3101EB102100220629ADF8062053D8FD
:104F2000DFE801F00414085252212A00D4F8B0023C
:104F3000026841E0C0B2052846D8DFE800F0032946
:104F40002D313539D4F8B002426834E0217CD4F8F0
:104F5000B40200290CBF816AC16A0DF106008847BE
:104F60000146022012E0207C70BBD4F8B402416BF1
:104F70000DF10600884723E0207C28BBD4F8B4025A
:104F8000016B0DF10600884701460720487018E0C4
:104F9000D4F8B00282680EE0D4F8B002C2680AE029
:104FA000D4F8B002026906E0D4F8B002426902E027
:104FB000D4F8B00282693AB1207C0DF10601904725
:104FC0000146002030B114E02046FFF7D7FE012053
:104FD000002170B9BDF8060048B1EA883AB19042A4
:104FE00038BF02462046ADF80620FFF7EBFEE88802
:104FF00008B102B0B0BD2046FFF7F2FE02B0B0BD6E
:10500000017849B1411E00208A780130002A01F15F
:105010000101F9D1C0B270470020C0B27047000052
:1050200080B590F89C22013A022A0FD8C98802293B
:105030000CD1D0F8A4120322002908BF0122014696
:1050400041F80C2F0222FFF7BDFE80BDFFF796FE50
:1050500080BD000070B5F0B1164605460C46FFF75E
:10506000CFFF022101EB40003080207003206070F0
:105070002878002808BF70BD691E0222002300BFE7
:10508000D6B246F00105A055635588780232002853
:1050900001F10101F4D170BD032884BF02207047E3
:1050A00040F20021C000C0F2012121FA00F0C0B29C
:1050B00070470000002804BF0220704780B5D0F878
:1050C000B432002B1CBF0023C0F8B432002918BF33
:1050D000C0F8B012012180F89C12027000F0BEF8F6
:1050E000002080BD80B5D0F8C002FCF785FFFFF737
:1050F000D3FF80BD80B5D0F8C002FCF757FFFFF7A3
:10510000CBFF80BDB0B5044669B1D4F8B4024269A2
:105110003AB194F89C02032803D12046904700201E
:10512000B0BD0220B0BDD4F89402002818BF0428F6
:1051300004D12046802100F077F93AE0022838D1E6
:10514000D4E90810814208D9081A83B220622046A7
:1051500011461A46FFF70AFE13E0E169814217D3B0
:10516000B1FBF0F202FB101090B9D4F89802814222
:105170000ED22046002100220025FFF7F7FDC4F8DB
:105180009852204600210022002300F0C7F810E0CA
:10519000D4F8B402C16829B194F89C02032801D163
:1051A000204688472046802100F03EF92046FFF740
:1051B000FDFD94F8A00201284FF0000004BF84F820
:1051C000A002B0BDB0BD0000B0B5044669B1D4F8CE
:1051D000B40282693AB194F89C02032803D12046B4
:1051E000904700251AE00220B0BDD4F894020025B3
:1051F000052815D0032811D1D4E95810814217D9B8
:10520000091AC4F86011814238BF084683B22046AB
:1052100011461A46FFF7A2FD0020B0BD2846B0BDDA
:1052200020460021C4F8945200F0FEF82846B0BD94
:10523000D4F8B402016929B194F89C02032801D181
:10524000204688472046FFF7CBFD0020B0BD000078
:1052500080B5D0F8C002FDF705F980BD10B5044651
:1052600041F2702045F60041C2F20000C4F2000194
:10527000016008210171022181710021C0F8D4422E
:10528000C4F8C00241810173FDF73CFA002818BF41
:10529000FBF790FDD4F8C002002100221823FCF790
:1052A00045FED4F8C002802100225823FCF73EFEC0
:1052B000D4F8C00281210022C023FCF737FED4F8C5
:1052C000C002012100224FF48873FCF72FFED4F8AE
:1052D000C002822100224FF48073FCF727FE0020D9
:1052E00010BD0000D0F8C00201F07F0202EB820284
:1052F00000EBC20000F11202090658BF00F5A972C6
:105300001078704780B59446D0F8C0021A466346BC
:10531000FDF7B2F8FFF7C0FE80BD000080B5D0F801
:10532000C002FDF7D5F8FFF7B7FE80BDF0B581B03C
:10533000002100224023044600254026FFF7E2FF1B
:1053400001272046802100224023C4F85871C4F868
:105350006461FFF7D7FFD4F8B802A761666284F8EA
:105360009C72C4F894526560C4F8A45228B1D4F871
:10537000B4020021426820469047002001B0F0BDF1
:1053800090F89C12042904BF90F89D1280F89C129A
:105390000020704780B590F89C12032905D1D0F801
:1053A000B412C969002918BF8847002080BD0000D9
:1053B000024600201174704780B5D0F8C002FDF796
:1053C0004DFAFFF769FE80BDB0B500F52A750446B9
:1053D000284600F04BF894F8A8020121B4F8AE2258
:1053E000C4F8941200F01F010229C4F8982208D0D2
:1053F00001290CD089B92046294600F0D3F80020B5
:10540000B0BD2046294600F007F90020B0BD204677
:10541000294600F0AFF90020B0BD00F08001204621
:1054200000F002F80020B0BD80B5D0F8C002FDF752
:1054300069F8FFF731FE80BD80B5D0F8C002FDF7F6
:105440002BFAFFF729FE80BD014690F89C0204224A
:1054500081F89D02002081F89C22704780B5D0F829
:10546000C002FDF785F8FFF717FE80BD0A780270CD
:105470004A7842704A8842808A888280C988C1807E
:105480007047000000290EBF0220C0F8B4120020AF
:1054900070470000B0B58A88044642B9C88830B960
:1054A00048887F2803D894F89C12032903D120460A
:1054B000FFF764FCB0BD00F07F052046294684F864
:1054C0009E52FFF779FF2046FFF78AFC002D14BF9C
:1054D0000220012084F89C02B0BD000080B5D0F805
:1054E000B42232B112689047002818BF0120400052
:1054F00080BD022080BD0000B0B54A8840F6082576
:10550000D1B20446C2F2000502292A7003D3204614
:10551000FFF734FCB0BD94F89C0203280CD002289D
:105520001AD141B3032084F89C0220466160FFF742
:10553000D5FF0228EBD01EE0B1B1606888421AD0D6
:10554000C1B22046FFF7EEFB297820466160FFF7E5
:10555000C5FF02280FD1DAE72046FFF70FFC2978B4
:105560002046FFF7DFFBB0BD022084F89C022046F6
:105570006160FFF7D7FB2046FFF732FCB0BD0000AB
:1055800080B54988012918BF80BD0121C0F8A41247
:10559000FFF726FC80BD000080B5FFF74DFF00201F
:1055A00080BD000080B50A7812F0600209D0402A60
:1055B00001D0202A13D1D0F8B4229268904700205D
:1055C00080BD4A78092A0AD8DFE802F0050D0911E2
:1055D00009152109191DFFF723FD002080BDFFF7E4
:1055E000CDFB002080BDFFF7A5FB002080BDFFF7AD
:1055F000C7FF002080BDFFF74DFF002080BDFFF7F3
:1056000069FC002080BDFFF777FF002080BDFFF719
:1056100079FC002080BD0000B0B50A460978044638
:1056200011F060010CD0402902D0202940F0808088
:10563000D4F8B40211468368204698470020B0BDD4
:10564000202906D1D4F8B402114683682046984731
:10565000B0BD5078117970B101282BD0032867D1E3
:1056600094F89C02032838D0022861D141F08000D0
:1056700080285DD028E094F89C02032839D00228C5
:1056800056D141F08000802852D101F07F0000EB1C
:10569000800004EB800000F11402090658BF00F5F9
:1056A000AA7200251560204611460222FFF78AFBE8
:1056B0002846B0BD94F89C0203283ED0022837D17A
:1056C00041F08000802833D02046FFF7ADFE204611
:1056D0008021FFF7A9FE0020B0BD5088B8BB41F083
:1056E0008000802833D0D08888BB2046FFF79CFEFE
:1056F0002DE001F00F0202EB820211F0800004EBBA
:1057000082020CBFD2F8582192698AB101F07F025F
:1057100002EB820204EB820202F5AA75002841F036
:10572000800018BF02F11405802815D1002019E06F
:105730002046FFF723FB0020B0BD508800281CBF87
:105740000020B0BD480602D02046FFF7CBFC204623
:10575000FFF746FB0020B0BD2046FFF7C3FD002841
:10576000E4D001202860204629460222FFF72AFBC8
:105770000020B0BDB0B50D460978044611F06001B7
:1057800018BF40290DD194F89C020138022803D893
:10579000A88810F0FE0F0BD02046FFF7EFFA00208C
:1057A000B0BD2029EFD02046FFF7E8FA0020B0BDB9
:1057B000D4F8B40229468268204690470028F5D1E3
:1057C000E8880028F2D12046FFF70AFB0020B0BD90
:1057D0007047000040F60C40C2F200007047000025
:1057E0002DE9F04391F800E0814691F8038000EB49
:1057F0008E0330F82E0047F27066B8F1030F20EAEE
:10580000060507D80020DFE808F002070D0A45F476
:10581000007506E0012005E045F4806501E045F4EF
:10582000C065002048F2800C45EA0C051D801D88EB
:1058300040F60F76354045EA0E0545EA0C051D8019
:105840000D7B002D4BD01D8840F60F66354048F289
:105850008006B8F1020F08BF06F5807635431D803B
:10586000B9F850500C8909F5806707EB0E1224F047
:10587000010454534FEA0E16B9F850204D890836EA
:10588000374425F00106BE5249781A88002902F4EF
:10589000804148D039B1198840F60F7211400CF59B
:1058A0008042114319801988490607D5198840F6A6
:1058B0000F7211400CF1400211431980198840F613
:1058C0003F7211400CF120024A40B8F1010F08BFAD
:1058D00041EA0C021A80198843F60F7242E04E78B2
:1058E000B9F85050002E4D4405F580654FEA0E166C
:1058F0003ED0C98821F00101A9531988490607D56E
:10590000198840F60F7211400CF1400211431980C2
:10591000198840F63F72B8F1010F01EA020122D066
:105920000CF1200270E039B1198840F60F72114075
:105930000CF58042114319801988490607D519884A
:1059400040F60F7211400CF1400211431980198882
:1059500043F60F7211400CF54052514019801988DE
:1059600040F63F72114041EA0C011980BDE8F08316
:10597000CC8846F0080724F00104EC5346F00C05EF
:10598000B9F850404D4405F580652E5B6FF39F26B6
:105990002E5309693F290BD3CF06675B4FEA511697
:1059A0004FF0FF3808BF08EB511647EA862109E09F
:1059B00039B101F00106675B06EB510147EA81212D
:1059C00005E0615B48F20006CFF6FF763143615394
:1059D0001988490407D5198840F60F7421400CF541
:1059E000804421431980BEF1000F06D0198843F688
:1059F0000F7211400CF5005206E0B9F8001043F6A2
:105A00000F7211400CF5405251401980BDE8F083EF
:105A10000020704780B50B784A78097B30F823E086
:105A200048F2C00C00EB830341B30EF4804062B334
:105A300038B1188840F60F7108400CF57F510843C3
:105A400018801888400606D5188840F60F7108405F
:105A500040EA0C001880188840F60F7108400CF5D9
:105A60007F5108431880188840F63F710840ACF118
:105A700040010843188043F60F7045E052B35FEAD7
:105A80004E602DD440F63F703EE038B1188840F6A5
:105A90000F7108400CF57F510843188018884006A4
:105AA00006D5188840F60F71084040EA0C001880AF
:105AB000188840F60F71084040EA0C0018801888DA
:105AC00043F60F710840ACF140010843188040F6DE
:105AD0003F7019E05FEA4E400CD443F60F7013E0BC
